:020000040800F2
:1000000048140020D500000815650008A546000822
:1000100000000000000000000000000000000000E0
:1000200000000000000000000000000053880008ED
:1000300000000000000000005570000891A20008B8
:10004000E7000008E70000080B770008E700000859
:10005000E70000086114000871140008811400080A
:10006000E7000008E7000008E7000008E7000008D4
:10007000E7000008E7000008E7000008E7000008C4
:10008000E7000008E7000008E700000800000000A3
:10009000E7000008E7000008E7000008E7000008A4
:1000A000E7000008E7000008E7000008E700000894
:1000B0001FA90008E700000800000000E700000892
:1000C0000348854600F02AFD0048004779B900083A
:1000D000481400200448804704480047FEE7FEE734
:1000E000FEE7FEE7FEE7FEE725A30008C1000008E3
:1000F00030B50B46014600202022012409E00D46C0
:10010000D5409D4205D31D469540491B2546954047
:1001100040191546521E002DF1DC30BD70B500248B
:100120002546002801DA01244042002901DA012590
:100130004942FFF7DDFFAC4200D04042002C00D026
:10014000494270BDF0B51FB40646002082B0054696
:100150004024019100901BE0019922460F46304651
:1001600000F0A6FB049A059B801A994110D3104613
:100170001946224600F08CFB361A8F410197224621
:1001800001200021009F00F083FB38184D410090B2
:100190002046641E0028DFDC019B00982946324679
:1001A00007B0F0BD03460B439B0703D009E008C925
:1001B000121F08C0042AFAD203E00B780370401C17
:1001C000491C521EF9D27047D2B201E00270401CA5
:1001D000491EFBD270470022F6E710B513460A46C7
:1001E00004461946FFF7F0FF204610BD0321001D0D
:1001F000401E037812021A43491EF9D51046704773
:10020000F8B502464A40D40F42004B0052085B0842
:100210009A4202D20246084611464A0023D0C30D34
:100220004A00DDB2120EAD1A202D35DA4902012640
:10023000490AF6058A19002C00D0524220214F1B92
:100240001146B9402A411018C20D9A4221D0002C03
:1002500017D0012D08DCDA05801AD20F8019D207D9
:10026000DBB200F051FBF8BDDA05801A0123400033
:100270001B06C01880185A428018CA0F1043490044
:1002800007E04908C2071143DA05801A80194008BF
:10029000801800F031FBF8BD61000122511A001BEB
:1002A000F7E70122D2075140AAE70122D2075040C6
:1002B000A6E7024670B54A40D30FDB0740002DD0B9
:1002C0004A002AD0010E140E000212020919400A37
:1002D000520A8418E50104465443000A120A2E0407
:1002E0005043A4194219200CC543AA18120C012529
:1002F000AD03521C521912047F39240400D0521C41
:10030000104301D44000491EC2B20C06C009201897
:10031000401C4008802A02D003E0002070BD400845
:100320004000002900DA0020184370BD70B5024675
:100330004A40D50F40004A00ED0740085208002807
:1003400014D0002A12D0C40DD30D41020120C005E3
:100350005202490A520AE41A091812187D349142CD
:1003600001D3641C00E04900002C01DA002070BDBC
:100370000023914201D3891A034340084900002811
:10038000F7D100290AD0914202D10121C90705E025
:10039000914201D2012101E00121C943E005C018C9
:1003A000401900F0A9FA70BDF0B50746084658405C
:1003B00087B0C00F049048000E4659004008490815
:1003C000BC1A884105D2384631461E4617460B46B0
:1003D00002465800400810434CD0300D03904005B1
:1003E0005900400D490D0590401A0290402872DADC
:1003F00018030121000B090508430190049800929D
:10040000002805D0019952420020884100920190B5
:10041000029840210A1A0199009800F039FA05461D
:100420000C466B4607CB00F054FAC0197141039A91
:100430000E0D0023D71756401A467A40164344D073
:10044000049A002A2DD0029A012A039A15DC12057B
:10045000C01A914101263605001C7141D20F059E3C
:10046000D2070093019202962A46234600F092FAA0
:1004700007B0F0BD38463146FAE71605224A0F4666
:10048000B218C01AB74101210905001C4F410018DC
:100490007F41114618187941E20F10436D196441EC
:1004A00013E0E2076D0815436408C2071443039A7A
:1004B00001261205C01A91413605001C7141CE0774
:1004C000400830434908C01851412A46234600F0ED
:1004D00054FACDE7FFE7049801224000C117121A31
:1004E00000238B4104983146C417381AA141EEE726
:1004F00030B40124E407634030BC55E730B4012434
:10050000E407614030BC4FE70000E0FFF0B51FB4E6
:1005100088B00B990998002448400999C00F4900F8
:1005200049080991C0070B990090490049080B91AF
:1005300009990898A64608431CD00B990A980843C5
:1005400018D0099801244000420D4800410D099837
:1005500024050003000B204309900B980003000BB7
:1005600020430B9050181C4940180022019014465B
:10057000104605E0002001460DB0F0BD032801DA69
:10058000034600E003239C46C11A0AAE0AE05F005E
:1005900008ADED5B4F00F75B7D430027AA187C4157
:1005A000491C5B1E6145F2DD410004AB5A52210437
:1005B000120C0A43240C401C0828DFDB019802902F
:1005C0000099704601910090059B049A079906983E
:1005D00000F0E0F9D0E700000DFCFFFFF0B50C469D
:1005E0005C4085B0E40FE40703944C0000266408E7
:1005F00059009446490802460296224321D0624699
:100600000A431ED06200570D4A000E032303550D06
:10061000012402462C492405781B1B0B360B40187D
:1006200023432643614600901C46501AB44103D32D
:100630000098401C009002E0921800985B4100284E
:1006400003DA0020014605B0F0BD002001210905B4
:100650000746864611E064461D46141BB54106D385
:100660006546521BB341744607430C43A646CD076B
:1006700040084908284392185B4105460D43EAD1DA
:100680001046184313D06046194650407140084345
:1006900006D06046101AB34106D20122002306E0BC
:1006A00000220123DB0702E00122D243531000980D
:1006B00074460105381C6141029C039D0019694183
:1006C00000F05BF9BFE70000FD03000070B54B00D0
:1006D0005B0803430BD04B005C0D0026334665429C
:1006E000B341D417AD1AA34102DB0020014670BD0F
:1006F00012053018514170BDC217C10F504010B5DE
:100700004018CA079623002100F0FEF810BD10B56E
:1007100000229623114600F0F7F810BD0EB5C2175F
:10072000C10F5040CA0740180021054B02930192A7
:1007300000910A460B4600F02DF903B000BD000001
:10074000330400000EB505490291002100910A46CC
:100750000B46019100F01EF903B000BD3304000008
:10076000C20F410040020123400ADB05D207090EF7
:10077000C0187F2901DA00207047962903DC9623F0
:10078000591AC84001E096398840002AF4D0404206
:100790007047410040020122400AD205090E80182C
:1007A0007F2901DA00207047962903DC9622511A2E
:1007B000C8407047963988407047000070B5CD0F2B
:1007C0004A0009030123090B1B0519430B4BED07D5
:1007D0000024520D9A4201DA002070BD074B3433D9
:1007E0009A4203DC9A1A00F063F802E004495118B7
:1007F00088402C43F1D0404270BD0000FF03000050
:10080000CDFBFFFF4A0009030123090B1B05194318
:10081000094B10B5520D9A4201DA002010BD064B6B
:1008200034339A4203DC9A1A00F042F810BD0349AF
:100830005118884010BD0000FF030000CDFBFFFFF2
:10084000C20FD207400040080BD0C10D0723DB01C7
:10085000C91840020905400A1143C2084007114364
:10086000704700200146704710B5002904DB0124C1
:10087000E40740428C412146002B04DB1C46012347
:10088000DB075242A341994200D1904210BD0000C3
:1008900010B5202A04DB0146203A9140002010BD0B
:1008A000914020239C1A0346E3401943904010BD19
:1008B00010B5202A04DB0846203AD040002110BDA4
:1008C0000B46D340D0402024A21A91400843194639
:1008D00010BD10B5202A06DBCB170846203A104180
:1008E000C1170B4306E00B461341D0402024A21A47
:1008F00091400843194610BD002904DA401C490004
:1009000001D140084000704770B40024050C05D1A7
:100910001024000402D1002921D01124050E01D198
:1009200000020834050F01D10001241D850F01D1FB
:100930008000A41C002801DB4000641C002908D0B2
:1009400020252E1B0D46F540A14000D00121294352
:10095000084301061B1B000ADB1D02D5002070BCEA
:100960007047DB05181880180029F8DA401C490088
:10097000F5D170BC40084000704710B5002B08DA74
:100980000024401C614192185B411A4301D1400888
:10099000400010BDF0B51FB482B005460C0003D076
:1009A00008460AF067F802E00AF064F820300246D0
:1009B000009021462846FFF76BFF049B059A0446EA
:1009C0000F4618431143084314D0184610431BD058
:1009D000009840210A1A18460599FFF769FF054655
:1009E0000E46009A05990498FFF752FF084305D078
:1009F000012004E02046394607B0F0BD0020C117B1
:100A000005430E432C43374300990E986305401A63
:100A10007905E40A00220C43FD0A0A3002D50020C1
:100A20000146E9E70105101969410C9C0D9D00196B
:100A30006941FFF7A2FFDFE7F8B505464800400827
:100A40000C46284304D06000184A400D904201DD56
:100A50002846F8BD15493539884210DC88420BDB41
:100A6000290D200308432903014305D0E00F104955
:100A7000C00741180020F8BD00200146F8BD161A35
:100A80004020821B28462146FFF702FF07460091BF
:100A9000284621463246FFF70BFF3A46009BFFF7F8
:100AA0006CFF3246FFF7F4FEF8BD0000330400008F
:100AB0000000F03F4A0009030123090B1B051943FD
:100AC0000A4B10B5520D9A4202DA0020014610BDC1
:100AD000064B34339A4203DC9A1AFFF7E9FE10BD45
:100AE000034BD218FFF7D4FE10BD0000FF03000037
:100AF000CDFBFFFF10B5002904DB0124E4074042D1
:100B00008C412146002B04DB1C460123DB075242AB
:100B1000A3418B4200D1824210BD0000064C01254A
:100B2000064E05E0E36807CC2B430C3C9847103495
:100B3000B442F7D3FFF7C8FA74C5000894C500089B
:100B400070B58C180578401C6B075B0F01D10378DA
:100B5000401C2A1106D10278401C03E006780E7072
:100B6000401C491C5B1EF9D12B0705D40023521EE3
:100B70000DD40B70491CFAE70378401CCB1A921C69
:100B800003E01D780D70491C5B1C521EF9D5A14273
:100B9000D8D3002070BD000038B50446064805498A
:100BA0000068FFF7A5FA604300E0401E00900028AF
:100BB000FBD138BD40420F00C4010020F8B5044607
:100BC000006881688907890F012902D10168C90776
:100BD00022D18168114A10261140012500290ED129
:100BE0008168294381600120FFF7D6FF00F0AEFF46
:100BF00007460CE000F0AAFFC01B0A2807D9A06D29
:100C00003043A065E06D2843E0650120F8BD206811
:100C10000068C043C007EDD10020F8BD1700008078
:100C2000F0B589B00C4607461022002168460AF04C
:100C3000E3FE6946224608460AF0C3FB6846007890
:100C400087260106684600290FDA00214318425C16
:100C50005B785200DB091A434254491C0F29F5DB2B
:100C6000C17B0246490071400DE000214318425CFF
:100C70005B785200DB091A434254491C0F29F5DB0B
:100C8000C17B02464900D173E21DF9325169102936
:100C900012D0017809061BD500214518435C6D78F8
:100CA0005B00ED092B434354491C0F29F5DBC17B45
:100CB00003464900714019E000216218FF320132F9
:100CC0005378455C491C6B4053701029F5DB26E0D6
:100CD00000214518435C6D785B00ED092B434354BC
:100CE000491C0F29F5DBC17B03464900D973E11D7F
:100CF00055698023FA316B54002500E05D54536937
:100D00005B1C5361102BF9D300216218FF320132B2
:100D10005378455C491C6B4053701029F5DB00216A
:100D200062181046FF32E0300132437C5278491C91
:100D3000534043741029F3DB21461022F13104A8FB
:100D40000AF042FE2246394604A80AF03AFB102275
:100D5000002168460AF050FE09B0F0BD10B5044607
:100D600010220021F1300AF047FEFF20002115304B
:100D70000151F02220460AF03FFE10BD0B4610B58F
:100D80000246102118460AF047FB10BDF0B5044694
:100D9000FF308BB00F4601300890E11D4069FA31F9
:100DA0000091103915460791002843D010210E1AE2
:100DB000AE4200D316460099B2B2401839460AF046
:100DC00003FE0898089940698019486110283AD3B1
:100DD000B54238D0002162181046FF32E0300132AF
:100DE000437C5278491C534043741029F3DB079924
:100DF000224608460AF0E5FABF19AD1B1AE00020AA
:100E00002118E0314A7C3B5C401C5A404A7410284F
:100E1000F6DB102202A807990AF0D6FD02A92246A5
:100E200008460AF0CEFA102202A907980AF0CCFD73
:100E3000103D1037102DE2D8AAB2394600980AF0BA
:100E4000C3FD089845610BB0F0BD0000F7B523491C
:100E50008022497A214B511ACDB2197A5B7A8026C9
:100E6000F31A0A46DEB2871E491C0124C9B2761E57
:100E70003B0009F02EFE09060C060C120C06062B90
:100E80003000164BAA4224D2154CA05403E0134B59
:100E9000B24215DB1DE019720DE0104EAD1EAA42E4
:100EA00017DA0F4B985401985854491CC8B202994C
:100EB0001954401C3072002408480121C17108E017
:100EC000074CA05401986054491CE4E7034BAA4224
:100ED000F6D32046FEBD0220FEBD000044020020E5
:100EE000060B002070B5174C0646E078012820D08C
:100EF00009F04EF901281CD0BC202070BE20607083
:100F00000025A570E5702571012060710E4823460B
:100F10000E49083323C30E4A011F0A6022C0346001
:100F2000E16820460968002904D08847012807D0D5
:100F3000002070BD1421FFF74EF90120356070BD0F
:100F40003068F7E7240500207C0100200000002025
:100F50006800002070B5184C0646E078012821D0C2
:100F600009F016F901281DD0BC202070BE20607049
:100F70000025A570E570257101206071204623468B
:100F800028300E49083323C30E490D4A0A6022C097
:100F90003460E16820460968002904D088470128A8
:100FA00007D0002070BD1421FFF715F9012035602E
:100FB00070BD3068F7E700004C05002034000020C9
:100FC000680000209001002010B500280AD0C268F7
:100FD000002907D09269002A04D09047012800D048
:100FE000002010BD012010BD10B5002208460A6087
:100FF000FFF778FF012800D0002010BD10B50028B1
:1010000008D0C1688968002904D08847012800D029
:10101000002010BD012010BD10B50222144901238B
:1010200086B000281ED0012804D002281AD0032838
:1010300007D117E0CA6A1A43CA62C96AC907C90F49
:10104000059141000B4A8000515A00910021029104
:1010500003210391084901930858694600F0AEFC4A
:1010600006B010BDCC6A1443CC62C96A1140E7E7F0
:101070000010024080C10008B401002010B5054AEC
:101080004100515A044A80001058002200F058FDD7
:1010900010BD000080C10008B401002010B5054A51
:1010A0004100515A044A80001058012200F048FDC6
:1010B00010BD000080C10008B401002070B5194CBB
:1010C0000546E078012823D009F062F801281FD0F6
:1010D000B1202070BA2060700026A670E6702671DC
:1010E000012060711149E1600F48A0601049216141
:1010F000104A011F0A6042C02C60E168204609685E
:10110000002906D08847012809D003F079FF002084
:1011100070BD1421FFF75FF801202E6070BD2868B4
:10112000F7E7000038050020880100206C0000204F
:10113000D40000204C01002070B51B4C0646E07D19
:10114000012828D009F024F8012824D0B1202075E6
:10115000BA2060750120A0750025E57525766076BA
:1011600020463030E0611148206211486062124828
:101170001049016021462831CD6088600846143846
:101180003060C1680968002906D08847012809D065
:1011900003F036FF002070BD1421FFF71CF801207A
:1011A000356070BD3068F7E74C050020A0000020D6
:1011B000100100204C0100209401002010B50028EF
:1011C0000AD0C268002907D09269002A04D090474B
:1011D000012800D0002010BD012010BD10B5002254
:1011E00008460A60FFF76AFF012800D0002010BD02
:1011F00010B5002808D0C1688968002904D0884744
:10120000012800D0002010BD012010BD10B500281D
:101210000AD0C268002907D09269002A04D09047FA
:10122000012800D0002010BD012010BD10B50C46D3
:101230000021216000280AD0012804D02046FFF7B1
:1012400089FE012808D12046FFF776FF02E02046FC
:10125000FFF780FE012800D0002010BD10B5002847
:1012600008D0C1688968002904D08847012800D0C7
:10127000002010BD012010BD10B50D490020FFF762
:10128000B3FE0B490020091DFFF7D0FF08490020DD
:101290000831C043FFF7A2FF054C2068FFF7AEFE00
:1012A0006068FFF7DBFFA068FFF7A2FF10BD00003A
:1012B000CC0100203EB5044600200D4D0090019069
:1012C000029069462868FFF77FFE01A96868FFF76A
:1012D0009DFF02A9A868FFF771FF0098A060019820
:1012E0006060029820600348E060034820613EBDD2
:1012F000CC0100200D093E00AB0305003EB50D4CAE
:101300006946E2780A70227D8A70C870606B09F0C5
:1013100039F80190E06B0290E07D69464870207CCE
:1013200006F023FA218CE06B4143081AA16D4018A6
:10133000A0653EBD44020020FFB5002085B00090AE
:101340000546064601900024770007980121C05BFE
:10135000A14008422FD028190C2203905043089A2C
:101360001258002A27D0059A002A01D1490722D015
:101370000899411808200291085602110007011728
:10138000069840B206F001FC002814D00298407A7A
:1013900001010E980818C068002804D00198401C6C
:1013A000C0B2019007E0009A0F9903988854009802
:1013B000401CC0B20090641CE4B2102CC5D31035A0
:1013C000761CEDB2F6B2102DBDD3109901980870BD
:1013D000009809B0F0BD000030B587B01421684610
:1013E000FEF7F9FE1A4CE16A02200143E162E16A6C
:1013F000184D0140012001900290032003900591B7
:101400000F20000300906946284600F0D7FA00221A
:10141000A114284600F094FB01210022490328462C
:1014200000F08EFB00222901284600F089FB0022F3
:101430006901284600F084FB606B29030843606360
:1014400000F094FA00F0A2FA00F098FA07B030BD6C
:10145000001002400004005010B502F055FE10BD0F
:1014600010B5012000F09EFA022000F09BFA10BD9A
:1014700010B5042000F096FA082000F093FA10BD91
:1014800010B5102000F08EFA202000F08BFA4020DA
:1014900000F088FA802000F085FAFF20013000F08B
:1014A00081FA0120400200F07DFA0120800200F064
:1014B00079FA0120C00200F075FA0120000300F063
:1014C00071FA0120400300F06DFA0120800300F062
:1014D00069FA0120C00300F065FA10BD01A00AF00E
:1014E000EFFCFEE74572726F725F48616E646C6577
:1014F000720A0D000649800009580648091803D0F1
:10150000C14203D00020704701207047022070477D
:10151000ECC10008702FFCFF10B5094A0021CB0078
:10152000D458844207D89B189B68834203D9C800CB
:101530008018007910BD491CC9B21529EFD3FEE708
:1015400064C00008F8B5054604464035287D0026ED
:10155000012808D001202875206881688907890F33
:1015600001290ED101E00220F8BD0168C90708D0A9
:10157000A06D20210843A065012600202875304673
:10158000F8BDA16DFF220132914302221143A165F2
:10159000C1688907890F0091C16889088900C16005
:1015A0002068816892071143816000F0CFFA0746F6
:1015B0000EE000F0CBFAC01B0A2809D9A06D022169
:1015C000884310210843A065002028750120F8BD3C
:1015D000206880680028ECDB2068C168009A11430D
:1015E000C160A06D80088000401CA065C5E70000B8
:1015F000F8B506460D464036317D01290DD0012152
:10160000317501688A68520709D5816D202211431E
:101610008165002030750120F8BD0220F8BD174B10
:101620006A68D80547109A42154C8A6A2B6812D00E
:101630005B035B0B1A438A622968490305D5A168DD
:101640000143A1600A20FFF7A7FA2868800312D59A
:10165000A06838430EE05B035B0B9A438A622968FB
:10166000490302D5A1688143A1602868800302D59F
:10167000A068B843A06000203075F8BD01100000DC
:10168000002701400068006C7047000070B504003E
:1016900006D0A06D264600254036002802D006E080
:1016A000012070BDE5653575204600F0D1F8A06DCC
:1016B000C00603D421688868400705D5A06D1021B5
:1016C0000843A0653575EBE7A06DFF22013290431A
:1016D00002221043A06588688207920F5A48012AA7
:1016E00002D10A68D2072BD1032362689B079A4272
:1016F00005D05B429A4202D05B009A4209D10A6946
:10170000920092080A6121680A6963681A430A61B3
:101710000CE00A69920092080A6181680F22920423
:101720009143816081686268114381602168CA6861
:1017300018239A43CA602168CA68A3681A43CA601A
:10174000816801225206914381608168228F52068E
:101750001143816020688168C90004D48168012236
:101760001207114381602068C168384A1140C16086
:101770002169E068022923D000210843216A226BF5
:101780004903520011430843616B0843A16989036F
:101790000843E169C90308432168CA681043C86067
:1017A000A06A0146FF39C23905D0E16A08432168C1
:1017B000CA681043C860606A0121012802D00BE0AA
:1017C0000421DAE7206A002823D0A06D20221043EC
:1017D000A065E06D0843E065206C012820681FD0FB
:1017E0000169C90703D001694908490001612068FE
:1017F0004169C908C900416120684169E26B114330
:101800004161E565A06D80088000401CA065002056
:1018100070BD2068C26801231B041A43C260DBE765
:101820000269FF239B009A43026120680269636C8E
:10183000E66C1A43A36C33431A43026120680269C1
:101840000A430261D3E70000002701401902FEFFAE
:101850007047F8B504464069254640350E460828CD
:101860000BD02068C068C00709D0A06D20210843B4
:10187000A065002028750120F8BD082700E00C278E
:1018800000F064F9009011E0701C0FD0002E05D01C
:1018900000F05CF90099401AB04207D9A06D04210C
:1018A0000843A065002028750320F8BD2068006863
:1018B0003842E9D0A06D012149020843A0652068A3
:1018C000C16809058A0F0C21002A1AD1226A002A50
:1018D00017D10268120714D5826853070122002B22
:1018E00008DB43688B434360A06D130298431043A9
:1018F000A06506E0A06D20231843A065E06D1043AD
:10190000E065A069002801D1206801600020F8BDD1
:1019100070B50446216800208968490721D425460E
:101920004035297D01291CD001212975E169012952
:1019300004D02046FFF742F9002811D1A16D0A4AD0
:101940001140FF2201321143A1650021E165297593
:1019500022681C21116021688A6804231A438A6066
:1019600070BD022070BD0000FEF1FFFF024841681B
:10197000012211434160704700580140024841680C
:1019800004221143416070470058014002484168F9
:1019900002221143416070470058014010B502F027
:1019A000B5FA10BD10B504494A69024202D0486137
:1019B000FFF7F4FF10BD000000040140F8B500235C
:1019C0000124A7E027469F403A4070D04D68022D81
:1019D00001D0122D14D1DD08AD002D1800952D6A0F
:1019E0005E07AC46F50E0F26AE46AE406546B543E3
:1019F000AC460E697546AE4065462E43009D2E628C
:101A00004D68012D05D0022D03D0112D01D0122DCE
:101A100016D185680326AC465D00AE46AE406546ED
:101A2000B543AC46CE687546AE4065462E438660EB
:101A300046680D79BE43ED06ED0F9D403543456088
:101A400006685F000325BD40AE46AE430D79B4463F
:101A5000AE07B60FBE4065462E430660C6687546A3
:101A6000AE438D68BD403543C5604D68ED0050D52F
:101A70002B4D6E6B26436E639E082A4DB60075197A
:101A8000AC46AD689E07360F0F27B740BD4305270C
:101A90003F07B84201D100271AE0234FB84201D1D5
:101AA000012715E0214FB84202D1022710E030E0B3
:101AB0001F4FB84201D103270AE01E4FB84201D19F
:101AC000042705E01C4FB84201D1052700E0062796
:101AD000B7402F436546AF60184D2E684F68964358
:101AE000FF0300D516432E606E684F689643BF0310
:101AF00000D516436E60AE684F689643FF0200D56E
:101B00001643AE60EE684F689643BF0200D5164399
:101B1000EE605B1C0A681546DD4000D052E7F8BD58
:101B20000010024000000140000400500008005076
:101B3000000C005000100050001C00500004014038
:101B4000002A01D0816170478162704701480068B6
:101B500070470000C801002070B5040014D0242193
:101B60002046403005464170206801684908490018
:101B70000160204600F0BEF90021616469702163B4
:101B8000A9702970084670BD012070BD40304078B2
:101B90007047000070B5040006D0254640356878CF
:101BA0000026002802D005E0012070BD2E702046DE
:101BB00000F0A1F9242068702068016849084900F4
:101BC00001600F2160680906884321680861216867
:101BD0008A680120C00382438A60E1680129A16804
:101BE00008D021229202114322689160E168022903
:101BF00002D005E00143F7E701212268C9025160E4
:101C000021684A680F4B1A434A602168CA688243B8
:101C1000CA60616920690843A16909020843216813
:101C2000C860216AE069084321680860206801688B
:101C30000122114301606664202068702663AE7043
:101C4000002070BD00800002FFB505460446403507
:101C5000687883B0202873D10C98002871D00D9833
:101C600000286ED0287801286AD001202870FFF75C
:101C70006DFF0746012200901923D103204602F090
:101C80003BFE002876D1222068704020A8700026F4
:101C900066640C9860620D98608566630E9800908B
:101CA000019704A90EC9204602F0AAFD002804D01D
:101CB000606C2E70042860D05CE0618D0920800289
:101CC000FF2905D9FF22228501231B06009006E08B
:101CD000618D21850090208D0123C2B25B062046D4
:101CE000049902F0F7FD00970022042120460E9B84
:101CF00002F002FE00283DD12068416A606A421C61
:101D000062620170208D401E81B22185608D401E6F
:101D10006085002921D1608D00281ED00097002207
:101D2000802120460E9B02F0E7FD002822D1608D25
:101D3000FF2807D9FF22228501231B06009608E011
:101D40002AE01AE0608D20850096208D0123C2B222
:101D50005B062046049902F0BDFD608D0028C2D1CB
:101D60003A4620460E9902F0EBFD002807D0606C41
:101D7000042802D0032007B0F0BD0120FBE7216852
:101D80002020C86121684A68044B1A404A60687084
:101D9000AE702E700020EEE70220ECE700E800FEB7
:101DA000FFB5054604464035687883B0202876D1D3
:101DB0000C98002874D00D98002871D0287801283C
:101DC0006DD001202870FFF7C1FE07460122009068
:101DD0001923D103204602F08FFD002853D1212082
:101DE00068704020A870002666640C9860620D98A8
:101DF000608566630E980090019704A90EC920467D
:101E000002F033FD002804D0606C2E7004286AD0E4
:101E100039E0608DFF2805D9FF22228501231B06AA
:101E2000009606E0608D20850096208D0123C2B2C9
:101E30005B062046049902F04DFD3A4620460E9975
:101E400002F0A5FD002803D0606C04284BD01AE0F6
:101E5000606A411C6162216800788862608D401E62
:101E60006085208D401E0004000C208524D1608DEB
:101E7000002821D000970022802120460E9B02F0EE
:101E80003BFD002802D0032007B0F0BD608DFF2885
:101E900007D9FF22228501231B06009608E024E0D3
:101EA00021E0608D20850096208D0123C2B25B0663
:101EB0002046049902F00EFD608D0028BDD13A46FF
:101EC00020460E9902F03CFD0028BDD1206820215B
:101ED000C16120684268064B1A4042606970AE706A
:101EE0002E700020D0E70120CEE70220CCE70000D2
:101EF00000E800FE7047704702480168491C016015
:101F000070470000C801002010B506480168022291
:101F100011430160032000F007F800F007F80020EB
:101F200010BD0000002002400020704710B50B4893
:101F3000816B02041143816300F054F800F04AF809
:101F40000748026808210A43026002688A43026067
:101F500000F038F802F05AF810BD000000100240FE
:101F600000200240C106C90E0120884001490860D6
:101F70007047000080E200E0C106C90E01208840E1
:101F8000014908607047000000E100E00549096868
:101F9000C206D20E01209040014201D001207047BC
:101FA0000020704700E200E0C106C90E0120884011
:101FB000014908607047000000E200E010B504F03D
:101FC000ABFA10BD02480168021511430160704769
:101FD00000700040024801684215114301607047DB
:101FE0000070004002480168102291430160704770
:101FF00000700040094B1A689208920002431A6070
:102000000748026904239A430261012903D040BFB3
:1020100020BF20BF704730BF7047000000700040F5
:1020200000ED00E00A4B1A689208920002431A6021
:1020300008480369042213430361012906D040BF05
:1020400020BF20BF016991430161704730BFF9E7AC
:102050000070004000ED00E0F8B566490746012534
:102060000020ED03624B634A4031102F6FD011DC2A
:10207000012F77D0022F6CD0042F6BD0082F24D1E2
:10208000C9680324240321407BD0BD026C10A942FF
:102090007CD0A0E00326584C3604202F0BD0402FD4
:1020A00035D0FF3F012F10D1C968314069D07C0481
:1020B000A1426BD096E00B690969012731403F04CA
:1020C000B94203D1990559E02846F8BD01256D04B0
:1020D000A94203D19907F8D54848F8BDB142FCD1CF
:1020E00011688903F9D5116803200005014001201A
:1020F0000005091A09D0091A05D0814201D14048CA
:10210000F8BD2046F8BD3F48F8BD3F48F8BDC96856
:102110000125AD06294006D0A942F7D1916889076B
:10212000F4D53A48F8BD11688901FBD5D068D1686B
:102130008002374D000F2D5C0802810FD068491CCA
:10214000C0030AD41068C00605D5204606E045E065
:1021500008E023E030E0184600E02E486843FDF731
:10216000C7FFF8BDCC68A407A40F0CD0022C0DD07B
:10217000012C10D0032CF4D1096989050029A3DBB7
:10218000F8BD16E002E000F0D1F9F9E7116849075F
:10219000F6D51846F4E700F0D9F9F1E7CC680C263B
:1021A000344006D0082CF1D0042CF4D00C2CE3D011
:1021B000E6E700F0ABF9E3E7CC680326B60234406B
:1021C000F7D00127FF02BC42E0D07A109442E2D05F
:1021D000B442D1D0D4E7A142DDD0D1E7916B49021E
:1021E000E7D4CDE7012212049142D4D0C8E7000021
:1021F0000024F4000010024000093D008890000017
:1022000020A1070040420F0080841E00006CDC0209
:1022100098C1000800127A00F8B5044600785E4DB7
:10222000800672D55C4E0027403EB06BC00004D4DF
:10223000B06BA9050843B063012758480168C90578
:1022400011D40168821511430160FFF77FFC0090F3
:1022500005E0FFF77BFC0099401A642837D84F4807
:102260000068C005F5D532680321090560680A4099
:102270000140914208D08103890F032904D13168BC
:10228000890301D50120F8BD2A69032109040A4008
:1022900022D0084090421FD0207880061CD52869A3
:1022A0002A6988430121C9040A432A612A698A43A9
:1022B0002A612861C0050FD5FFF748FC009008E0AF
:1022C000FFF744FC0099411A3548814201D90320A7
:1022D000F8BD28698005F3D561688803800F03285D
:1022E00005D132680005824301400A433260286903
:1022F000032261681204114008432861002F04D0B2
:10230000B06B012109078843B0632078C00705D06E
:10231000E868A168800880000843E86020788007AA
:1023200005D5E8680C218843E1680843E860207817
:10233000400706D5E86803218902884321690843DC
:10234000E8602078000706D5E86803210903884380
:1023500061690843E8602088C00506D5E868032164
:1023600009048843A1690843E8602078400606D53F
:10237000E868012189068843216A0843E8602078DB
:10238000000606D5E868032189048843E16908430B
:10239000E8600020F8BD00004010024000700040DE
:1023A00088130000F8B5054653480E460068C0077C
:1023B000C00FB0420AD25048016849084900314371
:1023C00001600068C007C00FB0426FD128784B4C45
:1023D000800705D5E068F0218843A9680843E060DC
:1023E0002878C00752D06868022817D0032818D070
:1023F0002168012818D08905002957DAE168890881
:1024000089000143E160FFF7A1FB696807460229E3
:1024100012D003291CD0012926D033E0216889037A
:10242000EAE721688901E7E74907E5E7FFF78EFB5F
:10243000C11B3348814223D8E0680007800F02287F
:10244000F4D123E0FFF782FBC11B2D48814217D84E
:10245000E0680007800F0328F4D117E0FFF776FB50
:10246000C11B274881420BD8E0680007800F012874
:10247000F4D10BE0FFF76AFBC11B2148814201D96F
:102480000320F8BDE0680007800FF3D11A48016807
:10249000C907C90FB1420BD9016849084900314346
:1024A00001600068C007C00FB04201D00120F8BD34
:1024B0002878400706D5E068072109028843E968C3
:1024C0000843E0602878000707D5E0680721C902C3
:1024D00088432969C9000843E06000F037F8E168E3
:1024E000084A0906090F515CC840074908600320E3
:1024F000FFF71AFD0020F8BD002002400010024046
:102500008813000088C10008C40100200448054960
:102510000068C968044A4905490F515CC8407047C2
:10252000C401002000100240A1C100080448054970
:102530000068C968044A8904490F515CC840704763
:10254000C401002000100240A1C1000810B5184AC3
:10255000D1680C20084004280BD0082810D00C2883
:1025600010D050680004410F0120C003491C88406E
:1025700010BD1068C00601D50E4810BD0E4810BD34
:102580000E4810BD88020E4B000F185C0902D3687C
:10259000890F491CDB0301D5084A05E01268D20601
:1025A00001D5044A00E0044A5043FDF7A1FD10BDE7
:1025B0000010024000093D000024F40000127A00DF
:1025C00098C10008F8B504460078FF4DC0074CD00C
:1025D000E8680007800F022807D0E8680007800F2E
:1025E000032809D1E868C00306D5286880033CD5D4
:1025F0006068002875D038E00120626800048242DB
:1026000003D129680143296011E0052301211B043E
:1026100089049A422A6802D10A432A60F1E7824378
:102620002A602A680240009228688843286060680F
:1026300000280DD0FFF78AFA0646E44F04E0FFF7C2
:1026400085FA801BB8427DD828688003F7D50CE056
:10265000FFF77CFA0646DD4F04E0FFF777FA801BB0
:10266000B842F0D828688003F7D42078800741D595
:10267000E8681F270007800F3F02012807D0E8689D
:102680000007800F032809D1E868C00306D4286832
:10269000400717D5E068012823D113E0E06800283F
:1026A00017D029680922914301432960FFF74EFAA8
:1026B000064604E0FFF74AFA801B0228C3D82868C0
:1026C0004007F7D568682169B84309020843686084
:1026D00010E02868400840002860FFF737FA0646F7
:1026E00005E090E0FFF732FA801B0228ABD828689B
:1026F0004007F7D42078C00676D5E868B44E0007C6
:10270000800F0BD0E06900285DD02868FF210131DF
:1027100008432860FFF71AFA074644E02868800556
:1027200002D5E06900286ED0606A6968314088424D
:1027300012D904F083FF0028AED16868616AB04303
:10274000084300E0E4E068606868218C0002000A49
:102750000906084368600FE06968B1430143696096
:102760006868218C0002000A090608436860606AF4
:1027700004F064FF00288FD1606A410B0120C00380
:10278000491C8840E968934A0906090F515CC84012
:10279000914908600320FFF7C7FB25E0FFF7D6F952
:1027A000C01B02288AD828688005F7D56868616A46
:1027B000B043084368606868218C0002000A09067B
:1027C0000843686010E02968FF20013081432960D8
:1027D000FFF7BCF9064604E0FFF7B8F9801B0228B2
:1027E00084D828688005F7D420787C4E000723D54C
:1027F00060690028306910D0012108433061FFF77B
:10280000A5F9074605E009E1FFF7A0F9C01B02287A
:102810007ED830698007F7D50EE04008400030616F
:10282000FFF794F9074604E0FFF790F9C01B022870
:102830006ED830698007F7D42078400761D5A86B3F
:102840000027C00005D4A86B012109070843A8632D
:10285000012763480168C90511D401688215114335
:102860000160FFF773F9009005E0FFF76FF9009939
:10287000401A64284CD85A480068C005F5D5FF2096
:10288000A2680130824203D131690143316111E014
:1028900001218902002A07D005231B029A4203D195
:1028A00032690A433261EFE732698243326130694B
:1028B00088433061A06800280ED0FFF747F90090E8
:1028C00006E0FFF743F90099411A404881421FD8BA
:1028D00030698005F5D50DE0FFF738F9009006E086
:1028E000FFF734F90099411A3848814210D830690D
:1028F0008005F5D4002F04D0A96B01200007814387
:10290000A9632078800630D53649A0694A1400E0D2
:102910007DE0002816D0AB6801200343AB606B6BF1
:1029200003436B63086A10430862FFF70FF906461A
:1029300004E0FFF70BF9801B022868D8A86880071D
:10294000F7D512E0A86840084000A860086A9043E4
:102950000862FFF7FBF8064604E0FFF7F7F8801B74
:10296000022854D8A8688007F7D4A06A002853D05A
:10297000E9680907890F032950D001263606022885
:10298000286805D0B0432860FFF7E0F8044640E02F
:10299000B0432860FFF7DAF8074604E0FFF7D6F8FF
:1029A000C01B022833D828688001F7D4216BE06A65
:1029B000EA680843616BFD231B049A4311430843F3
:1029C000E860286830430FE00010024088130000E0
:1029D00000E0000088C10008C4010020401002404F
:1029E00000700040000001402860FFF7AFF8044687
:1029F00004E0FFF7ABF8001B022808D82868800124
:102A0000F7D509E0FFF7A2F8001B022801D903203F
:102A1000F8BD28688001F5D40020F8BD0120F8BD7C
:102A200030B5014620310A78012A15D001220A70FA
:102A300002234B700468CA236362046853236362F1
:102A400003689C6820252C439C600068FF23436238
:102A50004A700020087030BD022030BD10B507F06C
:102A6000B3FC10BDF8B5054604462035287801288A
:102A70001DD001202870022068702268CA20506290
:102A8000226853205062FF2001300026FF27814238
:102A90001CD121688A6882438A602068816801228B
:102AA000120391438160FFF751F8009009E0022082
:102AB000F8BDFFF74BF80099411A7D20C000814214
:102AC0001BD82068C068C007F3D020E02068816868
:102AD0000122520291438160206881681201914372
:102AE0008160FFF733F800900DE0FFF72FF80099B1
:102AF000411A7D20C000814205D920684762032029
:102B000068702E70F8BD2068C0688007EDD5206819
:102B10004762012068702E700020F8BDF0B50C46A9
:102B2000FF219C460131254640268F051D4B20354F
:102B30008A4204D161620168C869496C05E00121DB
:102B4000490261620168086A896C8202920E2270F1
:102B50004204520E62704206520EA270020C4904E8
:102B60003240490CE27061608100890E2970014693
:102B700039401840E1616061604600280FD120783B
:102B800004F094FD2070607804F090FD6070A078EF
:102B900004F08CFDA070287804F088FD28700020D7
:102BA000F0BD00008080808010B500680B46406852
:102BB000C021C94301400002000ECC04D870E40ECD
:102BC0005C708C06A40E0904490F9C701970002AD1
:102BD0000AD104F06BFDD870587804F067FD587086
:102BE000987804F063FD9870002010BD30B50B4656
:102BF0000168896A5960016809694904490C99604A
:102C0000006804680F482146014088024D04800E88
:102C100018706D0E49065D70490E99706102490E7B
:102C200040242140D970002A0AD104F03FFD1870D9
:102C3000587804F03BFD5870987804F037FD987090
:102C4000002030BD7F7F7F0070B5040005D0254691
:102C500020356878002802D006E0012070BD0020F1
:102C60002870204600F042F8022068702168CA20CF
:102C70004862216853204862204604F02AFDFF2163
:102C80000028206803D0416204206870E5E782686C
:102C9000154B1A408260226890686368A6691843E1
:102CA00023693343184390602268E068106120680C
:102CB000026923891B041A4302612068C2688023C9
:102CC0009A43C2602068C26C92089200C264E269B2
:102CD000606902432068C36C1A43C2642068416281
:102CE00001206870002070BDBFFF8FFF00B597B056
:102CF0000420009000200A90FF20013002906846D6
:102D0000FFF760FC002801D0FEF7E8FB20200E90C2
:102D1000C0020F900EA8FFF77FFA002801D0FEF73F
:102D2000DDFB084801690122920411430161002280
:102D300011460220FFF742F90220FFF71DF917B0F4
:102D400000BD000040100240FEB506460446203695
:102D500030780B46012842D001203070022070707C
:102D600020681D46002720358068002A39D040069B
:102D700055D5187804F09AFC287804F097FC197857
:102D80009878090408435978DA7809021204114343
:102D90000843297809060843D96908435969084353
:102DA000054699695868084300902168CA2048621E
:102DB000216853204862FF205A6A013080218242F4
:102DC0004AD122689368834393602268D0680840A0
:102DD000FF388238D060FEF7B9FE019029E002206A
:102DE000FEBD400600D4DF70187804F067FC0204D2
:102DF000587804F063FC00020243987804F05EFC0B
:102E00000243D87800040243287804F057FC0006F7
:102E10000243D8690243586902431546C1E7DF708F
:102E2000AAE7FEF793FE0199411A7D20C000814276
:102E30002AD82068C068C007F3D02068C56121681F
:102E40000098486420688168FF2201321143816044
:102E500020688168120130E02068826801235B02EB
:102E60009A4382602068C2680A401D495118C160B7
:102E7000FEF76CFE01900EE0FEF768FE0199411A24
:102E80007D20C000814206D92168FF2048620320CE
:102E900070703770FEBD2068C0688007ECD5206870
:102EA00005622168009888642068816801225202C6
:102EB00011438160206881681201114381600948D3
:102EC0000268012149040A43026082680A43826061
:102ED0002168FF2048620120707037700020FEBD1D
:102EE0007FFDFFFF00040140F8B50546044620358C
:102EF00028780B46012815D0012028700220687020
:102F00005878002A10D004F0D1FB987804F0CEFB5A
:102F1000D8789E780004064358781978000249034F
:102F2000084316E00220F8BDC10603D5EF21084092
:102F30000A305870D87804F0C1FB0604587804F0C1
:102F4000BDFB00020643987804F0B8FB06431878EE
:102F5000400306432168CA20486221685320486222
:102F6000204604F0B6FB0027002811D11048064087
:102F7000206846602068C16880229143C160206853
:102F8000806880060CD4204600F08CF8002807D01A
:102F90002168FF204862042068702F700120F8BD6E
:102FA0002168FF204862012068702F700020F8BD62
:102FB0003FFFFF00F8B506460446203630780D4640
:102FC00001280ED001203070022070702068002788
:102FD0008068002A07D040061AD5287804F066FBDE
:102FE00017E00220F8BD400600D4EF70287804F006
:102FF00065FB0204687804F061FB00020243A878D4
:1030000004F05CFB0243E8780004024300920BE00A
:10301000EF702978A878090408436978EA780902EA
:1030200012041143084300902168CA2048622168B5
:1030300053204862204604F04CFB00281FD1184959
:103040000098084021680860206881680122920485
:10305000914381602969E868084321688A681043C0
:1030600088602068C16880229143C16020688068C0
:1030700080060CD4204600F015F8002807D02168FF
:10308000FF2048620420707037700120F8BD21686D
:10309000FF2048620120707037700020F8BD0000EA
:1030A0007F7F7F0070B504460068C168A02291430D
:1030B000C160FEF74BFD7D260546F60006E0FEF7F3
:1030C00045FD401BB04201D9032070BD2068C06897
:1030D0008006F4D5002070BD70B5040006D02546EA
:1030E0004035687C0026002802D005E0012070BD34
:1030F0002E74204600F032F80220687420680168BF
:10310000402291430160A168606822690843E16838
:1031100011430843616901220843A1695202114029
:103120000843E1690843216A0843A16A084321680A
:103130000860A0690421000C0840616A0843216806
:1031400048602168E06A08612068C1699200914383
:10315000C161666501206874002070BD7047F8B5D4
:10316000044600276846078026464036707C0128C2
:1031700002D0707C22287ED100290CD0002A0AD0EF
:10318000002B08D0307C012875D001203074707C71
:10319000012802D003E00120F8BD32207074676579
:1031A000A263A387E3872163A386E386A764E7641A
:1031B0000125A06A6D03A84207D120680168A943D0
:1031C00001602068016829430160206801684906A0
:1031D00003D401684022114301600121FF20E2680D
:1031E000C90205308A42616866D1002904D0814253
:1031F0000CD1E08E012809D1206B21680088C860BD
:10320000206B801C2063E08E401EE086E08E00284C
:1032100043D1A06AA84246D1206801680122120366
:10322000114301603FE02068C068A16B0880A06B7B
:10323000801CA063B0E0002202212046069B05F01E
:10324000AFFA00287DD1206B21680088C860206B10
:10325000801C2063E08E401EE086E08E002808D1AE
:10326000A06AA84205D12068016801221203114317
:103270000160002200E0CCE001212046069B05F021
:103280008FFA00287FD12068C068A16B0880A06BEE
:10329000801CA063E08F401EE087E08E0028CAD12A
:1032A000606800287BD1002201212046069B05F0A2
:1032B00077FA002867D1B6E7002904D081420BD104
:1032C000E08E012808D1206B411C21632168007821
:1032D000C860E08E401EE086E08E002845D1A06ADE
:1032E000A84205D120680168012212031143016040
:1032F000002201212046069B05F052FA002842D107
:103300002068C068A16B087046E0002202212046B8
:10331000069B05F045FA002835D1206B411C21633E
:1033200021680078C860E08E401EE086E08E0028AC
:103330000AD1A06AA84207D12068026801210903C6
:1033400000E020E00A430260002201212046069BA3
:1033500005F026FA002816D12068C268A06B411C2F
:10336000A1630270E08F401EE087E08E0028CCD180
:103370006068002813D1002201212046069B05F039
:103380000FFA002802D00320F8BD08E02068C168C9
:10339000A06B421CA2630170E08F401EE087A06A10
:1033A000A8420FD1002201212046069B05F0F8F922
:1033B000002802D0606D02210EE02068C0686946D6
:1033C00008800888012280212046069B05F0E8F944
:1033D000002804D0606D202108436065D3E70120F8
:1033E0007074A06AA84211D120688168C943C906D7
:1033F0000CD4616D0222114361650168A94301602B
:1034000020680168294301603774C4E637740020DE
:10341000BAE70220B8E770B5040005D0254660354C
:10342000687A002802D006E0012070BD00202872D2
:10343000204600F027F824206872206801684908B7
:1034400049000160606A002802D0204607F088F831
:10345000204607F01BF90128E7D0206841680922BF
:10346000D20291434160206881682A2291438160A1
:1034700020680168012211430160204607F0D6F858
:1034800070BD000010B50448816B01225204114345
:10349000816308F0BDFC10BD00100240FFB5064678
:1034A00004466036707A83B00D46202858D1002D2E
:1034B0000CD00598002809D00120A16800038142A2
:1034C00007D12069002804D1E80702D0012007B005
:1034D000F0BD307A012843D0012030720020E06630
:1034E00021207072FEF732FB019027464037059885
:1034F00038820598788218E0788A401E788206988B
:103500000090002280212046019B07F0D7F9002877
:1035100018D10120A1680003814202D1206900284E
:1035200012D02168287888626D1C788A0028E3D13F
:1035300006980090002240212046019B07F0BEF92A
:10354000002808D00320C2E728882168C005C00DE4
:103550008862AD1CE9E72020707200203072B6E767
:103560000220B4E738B504466B460122202100F062
:1035700024FA00280CD16A4611788020014311708A
:103580006B4601222021204600F05EFB002800D07F
:10359000012038BD38B50446002069460870204631
:1035A00000F046F9012805D069462078097888425C
:1035B00001D0012038BD002038BD38B504466B4627
:1035C0000122202100F0F9F900280DD16846007889
:1035D0006B464106490E68460170012220212046B3
:1035E00000F032FB002800D0012038BD38B5144669
:1035F0000D466B460122272100F0DFF9002801D09B
:10360000012038BD684600788007C00F28706846E2
:103610000078C007C00F2070002038BD10B50B46E1
:1036200001220F2100F0C9F9002800D0012010BDAF
:10363000F3B583B007466B460222302100F0BDF996
:10364000002824D1684600786B46450868464078D3
:103650000222400802903621384600F0AEF90028D8
:1036600015D168460024045F6B4602223A21384691
:1036700000F0A3F900280AD168460026865F6B4651
:1036800002222821384600F098F9002802D00120B3
:1036900005B0F0BD68460027C75F2846FDF72CF847
:1036A0000190301BFDF728F806460298401BFDF7F5
:1036B00023F80546381BFDF71FF82946FCF7F9FDEE
:1036C0003146FCF733FE0199FCF79AFD0A49FCF7F5
:1036D000F0FD0A49884202DD7D20C00008E0FF219C
:1036E000C905C84201D3002002E0FDF752F880B2BC
:1036F000049908800020CBE70000204100007A44B4
:1037000038B50C46694600F01FF801280CD0684611
:10371000007800280BD0012807D002280AD00328FF
:103720000AD006482060012038BD7F20C0052060F7
:10373000002038BD0248FAE70248F8E7000080BFE1
:103740000000E0400000484138B50C466B460122BD
:10375000202100F032F9002801D0012038BD69464F
:1037600008788007800F08702070002038BD0000A6
:10377000F3B585B007466B460222322100F01DF9F1
:1037800000282BD101AB01223521384600F015F974
:10379000002823D16A46117912788807800D1043DA
:1037A0000C2211406A46527889011143C510C81095
:1037B00003906B4604223C21384600F0FEF80028B6
:1037C0000CD1684600240226045F865F6B46022205
:1037D0002A21384600F0F1F8002802D0012007B075
:1037E000F0BD68460027C75F2846FCF785FF0290BA
:1037F000301BFCF781FF06460398401BFCF77CFF5B
:103800000546381BFCF778FF2946FCF752FD314688
:10381000FCF78CFD0299FCF7F3FC0449FCF749FD29
:10382000FCF79EFF069908800020D8E700002041A1
:1038300010B5FFF7F3FE012800D0002010BD10B531
:10384000FFF7A8FE10BD10B5044680680068006848
:103850004078002804D1204600F056F8012805D011
:10386000A1680020096809680870E07010BD1CB5E7
:103870000C4601AA6946FFF7B9FE012806D0684642
:103880000078002803D0012801D001201CBD207041
:1038900000201CBD38B50D46002469460C80FFF79A
:1038A000C7FE012808D068460088FCF730FF0349AE
:1038B000FCF73CFD2860204638BD00000000204198
:1038C00010B5FFF71DFF10BD10B5FFF7B1FF10BD1C
:1038D00010B504468068006800684078002804D16C
:1038E000204600F051F8012806D0A168012009689F
:1038F00009680870E070002010BD10B500F06BF88A
:10390000012800D0002010BD10B504460079002821
:1039100010D0A06800680068C078002804D1204654
:1039200000F062F8012805D0A16800200968096844
:103930008870207110BD10B504460079012806D0AA
:10394000A06800680068C078002802D006E0002067
:1039500010BD204600F04FF80128F9D0A1680120E1
:103960000968096888702071F1E710B500F072F8F5
:1039700010BD10B500F082F810BD10B500F072F95E
:10398000012800D0002010BD10B50446FFF702FE4C
:10399000012811D02046FFF710FE01280CD001218C
:1039A000204600F02FF8012806D00021204600F024
:1039B00051F8012800D0002010BD10B51C46012A86
:1039C00001D9802319431346224606F0E9FB00285B
:1039D00000D0012010BD10B513460122FFF7EDFF06
:1039E000012800D0002010BD10B5FFF7E6FD01282A
:1039F00000D0002010BD10B5FFF7B4FD012800D0A5
:103A0000002010BD38B50C460546012905D0002C14
:103A100003D00E490E4800F02FF96B4601222021F9
:103A2000FFF7CBFF00280FD169460978FB20014042
:103A3000A0000843694608706B46012220212846F1
:103A400000F002F9002800D0012038BD6302000018
:103A500030C5000810B50B0007F03BF8050406065A
:103A600006060D00012100E0032100F01DF80128E9
:103A700000D0002010BD012010BD00007F2210B535
:103A8000D205914201DC012105E0064A914201DCA8
:103A9000022100E0032100F007F8012800D00020F7
:103AA00010BD00000000E04038B50C00054609D00C
:103AB000012C07D0022C05D0032C03D00D490E4851
:103AC00000F0DAF86B4601222021FFF776FF00288C
:103AD0000DD1694608786B46800880002043087045
:103AE00001222021284600F0AFF8002800D0012054
:103AF00038BD0000BA02000030C5000810B5FFF75D
:103B000049FD10BD10B50446806800680068007863
:103B1000002804D1204600F057F8012805D0A168FC
:103B20000020096809684870E07010BD1CB50C469B
:103B30006A4601A9FFF75AFD012806D068460078B9
:103B4000002803D0012801D001201CBD20700020D6
:103B50001CBD10B5FFF7D4FD10BD000038B50D46F3
:103B6000002469460C80FFF703FE012808D069464F
:103B7000085FFCF7C1FD0349FCF7D8FB286020462D
:103B800038BD00000000204110B5FFF751FE10BD08
:103B900010B504468068006800680078002804D1E9
:103BA0002046FFF7F1FE012806D0A1680120096830
:103BB00009684870E070002010BD10B5FFF70BFFDA
:103BC000012800D0002010BD10B50446007900285F
:103BD00010D0A068006800688078002804D12046D2
:103BE000FFF702FF012805D0A168002009680968D5
:103BF000C870207110BD10B504460079012806D0A8
:103C0000A068006800688078002802D006E00020E4
:103C100010BD2046FFF7EFFE0128F9D0A168012072
:103C200009680968C8702071F1E710B5FFF712FF45
:103C300010BD10B5FFF722FF10BD10B500F012F84F
:103C4000012800D0002010BD10B51C46012A01D962
:103C5000802319431346224606F0BAFA002800D002
:103C6000012010BD07B502AB0122FFF7EDFF0128CF
:103C700000D000200EBD00000A46014601A006F05B
:103C8000C3FEFEE757726F6E6720706172616D65EB
:103C9000746572732076616C75653A2066696C652F
:103CA000202573206F6E206C696E652025640D0AD7
:103CB0000000000010B51248017800291ED1012231
:103CC000027011480F49016000210164C161D307EE
:103CD0008161436082638160C16001620723416248
:103CE000C3630261C1620422426101630748416B00
:103CF0004215114341630448FDF7C8FC10BD0000A4
:103D000008020020002401400808002000100240A2
:103D10007CB51E49064609780020002934D01C488D
:103D20004168C9430907FBD41A4C606B65152843E9
:103D3000606300211848FDF705FC184800901848FA
:103D4000019069461448FDF753FCA01401906946A0
:103D500000961148FDF74CFC0F48FDF7D9FD0021F6
:103D6000C9430D48FDF775FD0B48FDF78BFC0A496B
:103D700080B20A689368022633439360096803227D
:103D80000A60616BA94361637CBD000008020020EA
:103D9000007000400010024008080020FFFF0700EC
:103DA0000110000010B501210020FEF723F910BD1D
:103DB00030B585B0EFF3108472B614216846FCF775
:103DC0000AFA03200190002005252D0702906A467B
:103DD0008021284600F070F86A464021284600F00D
:103DE0006BF86A4608210D4800F066F801216A4622
:103DF000C903284600F060F809484068804707F08A
:103E0000DDFF0848016804221143016084F3108833
:103E100001210846FEF706F905B030BD0004005048
:103E200014C100080070004010B5EFF3108472B6A2
:103E30001148016801221143016001684907FCD55E
:103E40000168012212061143016001688901FCD555
:103E5000C16803221143C160C1680907890F0329A2
:103E6000FAD100F0EFFB05480068804707F0D0FF6B
:103E700084F3108810BD00000010024014C1000837
:103E8000014600200A0A00D00820084A114201D049
:103E900004221043064A114201D002221043054A6F
:103EA000114201D00121084370470000F0F00000EA
:103EB000CCCC0000AAAA000038B50B231B07C518FC
:103EC000114B0FD01C152D1B18D02D1B19D0A5423E
:103ED000DD6A05D108242543DD62DB6A234007E063
:103EE0008024F8E7DC6A01252C43DC62DB6A2B4086
:103EF000009311601146FDF761FD38BDDD6A0224B3
:103F0000E9E7DD6A0424E6E70010024010B5FFF798
:103F1000B7FF810002484058002800D0804710BDFC
:103F20008405002070B51C4615460E460846FFF76E
:103F3000A7FF002C0DD0074980000C50304602F03E
:103F4000CFF9044600222946FEF738F82046FEF74E
:103F500013F870BD8405002010B5D2B2FDF7F0FD56
:103F600010BD000070B500240E48FFF7D1FE0E4EC4
:103F70000E4D010013D00E483246008B5043FCF723
:103F8000B7F8B04201D9FE2409E0A84207D3401B8C
:103F9000FE2148434B210901FCF7AAF8C4B2204690
:103FA00070BD000000000244B80B000008070000CC
:103FB0006000F81F03494A690869496A504048404F
:103FC000704700004000F81F0F494B6A0A69D21879
:103FD000120EC2714B6A0A69D218120C82710A8AD7
:103FE0008B8CD218120A42710A7C8B8CD218027107
:103FF0004A69120EC2704A69120C82708A8A120AC9
:104000004270097D017070474000F81FF0B587B01D
:1040100014216846FCF7DFF8224CE06A01210843CE
:10402000E062E06A08400590E06A02252843E06209
:10403000E06A28400590E06A04263043E062E06AC6
:1040400030400590E06A80273843E062E06A6946C4
:104050003840059003200190002002901248009003
:1040600005200007FDF7AAFC10480090694610489B
:10407000FDF7A4FC69460F48FDF7A0FC69460E4811
:10408000FDF79CFCE06A40084000E062E06AA8435B
:10409000E062E06AB043E062E06AB843E06207B021
:1040A000F0BD000000100240FF9F0000FFFF000075
:1040B0000004005000080050001C005010B5104CC7
:1040C000607800281AD1FFF7F5FD0E480068804798
:1040D00000F076FA00F09CF807F04EFEFDF7CCF801
:1040E0000020FCF799FF0120FCF796FF0220FCF767
:1040F00093FF0320FCF790FF0120607010BD0000CB
:104100000802002014C1000870B5410EC0017D22D4
:104110000023FCF717F8054600F072F8044600E0AB
:1041200000BF00F06DF8001BA842F9D370BD00007D
:1041300070B505460C4600222048FEF757FD0022C8
:1041400029461E486668FEF72FFD002221461B48BF
:10415000FEF74CFD6068B042F1D1E878184A01469C
:104160005043C01C8308880726D0164968783D2232
:104170000646504302463C3A7000801EC140880704
:10418000D10F8918800F4910081AC018A978401E4D
:1041900008180D493C2248436178E12351432278B5
:1041A0001B015A438918A27810180818074A616839
:1041B0008002511A401870BD0549D7E7C405002098
:1041C000B5050000A0AA990080510100FF0300007E
:1041D00050554400032070470148006870470000B4
:1041E0001006002000B587B0694605A8FFF7A0FFBC
:1041F0000249096807B0401A00BD000010060020FF
:1042000000B587B0694605A8FFF792FF07B000BD6B
:1042100010B5084C207800280AD100F04FF8FF2193
:1042200001310548FEF71EFC00F078F801202070EF
:1042300010BD0000D8010020C405002010B50C4CB2
:10424000012002F013F821688868C0040ED5C86800
:10425000C0050BD5C86880221040FF388238C8607E
:104260000449900248612046FEF7F8FB10BD0000AB
:10427000C40500200004014070B50446FFF7B2FFFA
:10428000211A0D4D0220285EC01C814203D9012055
:1042900001F0ECFF02E0012001F0DCFF01F0F2FF91
:1042A000002805D1012001F0E1FF0220285E241A38
:1042B000204600F03FF870BDD801002010B5144929
:1042C000144886B0002412C01F210160846004617C
:1042D0001149446141600838FEF7B6FC6946CC7567
:1042E0000120487588750875002205A90948FEF760
:1042F000FBFD009401940494002269460548039450
:10430000FEF758FE0348FEF78BFB06B010BD000019
:1043100000280040C4050020FF03000010B5044C35
:104320002046211D1830FFF703FF206010BD00005C
:1043300010060020F0B587B004461422524902A8A6
:10434000FBF730FF50485038406E019000F0BAF84B
:1043500001204E49400388614D4803994D4A401A57
:10436000A105890D081887B2A10A684680795342D1
:1043700002E08918401C80B29942FAD26A46157A46
:10438000E122120102E0891A6D1CADB29142FAD20B
:104390006A46547A02E0641CA4B23C393C29FAD241
:1043A000927A51188EB20121890203E07A1A761CA2
:1043B00097B2B6B28F42F9D203E03C3E641CB6B26B
:1043C000A4B23C2EF9D203E03C3C6D1CA4B2ADB2C9
:1043D0003C2CF9D203E0183D401CADB280B2182D40
:1043E000F9D26946C979890769464A7949D02A4983
:1043F000491E515C814202D2FBF77AFE08462449ED
:10440000CA1B21492C394A60052252068A618E70E6
:104410004C700A460D70203210706846C07AC87021
:104420000020C861FF2248610132C8604A62086109
:10443000024608462438FEF787FC02A901A8FFF7C8
:1044400077FE13480399401A7D21C9004843800A2A
:1044500000906846837A427A017A10A007F030FD16
:104460007D20C0004743B80A0090334622462946C3
:104470000FA007F025FD012004494003886207B022
:10448000F0BD05490C31B3E71406002000040050CC
:10449000FF03000080AEFEFFA9C100086974277306
:1044A0002025643A25643A25643A256420000000FA
:1044B0005755402025643A25643A25643A25640A14
:1044C0000D00000010B506480168C8688022104041
:1044D000FF388238C86051000148FEF7C3FA10BDAA
:1044E000C405002010B57D2106F0DBFA4906C0099D
:1044F000084310BD10B5410EC0017D220023FBF71B
:1045000021FE10BD30B51E4C87B06078002834D134
:104510000220FDF73BFD01282FD16070694605A8F8
:10452000FFF706FE054601201649400388618862B0
:1045300015494211084600232438FEF7EFFA1248C5
:1045400018230146203109780278594351183C223A
:104550005143427889183C225143827880888918D7
:104560000A4A8902101A0918681A02B2608880186B
:1045700001B2618006A007F0A3FC07B030BD0000C7
:10458000D801002000040050E8050020FF030000CF
:1045900043616C3D25642C2025640A0D0000000059
:1045A00001B582B00020C0430090012301AA02A9F6
:1045B0000248FEF7D4FD684680880EBD2C06002018
:1045C00010B51C481A4901601C4A1B4B0021126897
:1045D00003E05208491C072901D29A42F9D84A0738
:1045E0008B07D20FDB0F52011B011A43C90700D002
:1045F00008210A43C2610021816001614161FF22FB
:10460000C160053281624260012201625202826110
:1046100041620B48416B8214114341630548FEF728
:104620005BFD002801D0FCF759FF00F00BF810BD2E
:10463000003001402C06002080969800C401002024
:104640000010024030B585B014216846FBF7C3FD69
:1046500002200190029003200390002004906A46FB
:1046600008210F48FFF728FC052424076A4640214B
:104670002046FFF721FC6A4680212046FFF71CFCFC
:1046800001210191CD0302916A4629462046FFF798
:1046900013FC012229462046FFF75EFC05B030BD21
:1046A0000004005000BFFDE710B50348FDF754FAC1
:1046B00000F004F810BD0000D804002010B50E482A
:1046C000FDF764FA00280DD10B480C4941603321F5
:1046D00081600121C1600A49016000F013F80648B9
:1046E000FDF758FA0448FDF751FA202801D00120BF
:1046F00010BD002010BD0000D80400202E11B10014
:104700000054004010B5164C86B0E16A0220014307
:10471000E162E16A03900140059103210902002052
:1047200000910290122104200191049069460D48E5
:10473000FDF744F9A16B012040050143A163A16A83
:104740000143A162A16A8143A162002211461720A0
:10475000FDF734FC1720FDF70FFC06B010BD00007C
:10476000001002400004005001688A69D243920799
:1047700001D400228A6200688169C943C90703D055
:10478000816901221143816170470000F7B5044639
:1047900000680E468069C043C0062CD420272546F9
:1047A000403520688069C04380060FD5701CF8D062
:1047B000002E05D0FDF7CAF90299401AB042F0D98F
:1047C0006F700020A87028700320FEBD21681020A3
:1047D000C8612068C7612046FFF7C6FF20684168AE
:1047E000064A11404160042060646F700020A87088
:1047F00028700120FEBD0020FEBD000000E800FE84
:10480000F8B504460120164640031D46DAB2009072
:10481000079F0023204600F05DF83A46204606999F
:1048200000F0B5F8002803D0606C04281BD018E015
:104830002846F5B2012809D02168300A88623A4634
:104840002046069900F0A3F80028EDD12068856283
:104850000097002240212046069B00F04DF80028DA
:1048600000D00320F8BD0120F8BDF8B504460120B2
:10487000164640031D46DAB2C3020090079F204649
:1048800000F028F83A462046069900F080F8002803
:1048900003D0606C04281BD018E02846F5B201282C
:1048A00009D02168300A88623A462046069900F00D
:1048B0006EF80028EDD120688562009700228021E3
:1048C0002046069B00F018F8002800D00320F8BD11
:1048D0000120F8BD70B50568049C68688905890DDC
:1048E0001204044E114319433040214301436960CF
:1048F00070BD0000009800FCF8B51C4617460E4637
:10490000054611E0601C0FD0002C05D0FDF71EF904
:104910000699401AA04207D920204035687000202F
:10492000A87028700320F8BD286881693046884344
:1049300004D00020B842E5D00020F8BD0120F9E7FE
:1049400070B516460D4604461AE032462946204602
:10495000FFF71CFF002801D0012070BD002D04D0FE
:10496000FDF7F4F8801BA8420AD9616C20200143AE
:104970006164403460700020A0702070032070BD1E
:1049800020688069C0438006DFD4002070BD70B508
:1049900016460D4604461CE0324629462046FFF7DF
:1049A000F5FE002801D0012070BD681C11D0002D3B
:1049B00004D0FDF7CBF8801BA8420AD9616C2020F7
:1049C00001436164403460700020A07020700320B7
:1049D00070BD20688069C0438007DDD4002070BDB1
:1049E00038B50446002069460870204600F016FAE3
:1049F000012805D0694620780978884201D0012035
:104A000038BD002038BD70B51446054600F080F969
:104A1000012806D02146284600F0D4F9012800D00C
:104A2000002070BD1CB50C46694600F0F9F801285D
:104A300003D068464078207000201CBD1CB50C4691
:104A4000694600F0EDF8012803D06846007920702F
:104A500000201CBD1CB50C46694600F0E1F8012899
:104A600003D068468078207000201CBD38B50C4605
:104A7000694600F0C2F8012803D06846007820702B
:104A8000002038BD1CB50C46694600F0C9F8012865
:104A900003D068460078207000201CBD1CB50C4671
:104AA000694600F0BDF8012803D06846C078207040
:104AB00000201CBD10B500F0D6F8012800D0002061
:104AC00010BD10B5002905D0012907D0022909D051
:104AD000012010BD002100F0F1FA06E0002100F0F5
:104AE00008FB02E0002100F01FFB0128F1D00020AC
:104AF00010BD10B5002905D0012907D0022909D021
:104B0000012010BD012100F0D9FA06E0012100F0DA
:104B1000F0FA02E0012100F007FB0128F1D00020AB
:104B200010BD10B560290DD006DC00290AD020295F
:104B300008D0402904D105E0802903D0E02901D024
:104B4000012010BD00F00BFB0128FAD0002010BDA1
:104B500010B500F039FB012800D0002010BD10B5C1
:104B6000002903D0012901D0012010BD00F046FB2F
:104B70000128FAD0002010BD10B5002903D001296A
:104B800001D0012010BD00F004FB0128FAD0002064
:104B900010BD10B5002903D0012901D0012010BD9E
:104BA00000F02CFB0128FAD0002010BD38B50C46CF
:104BB0006B460122272100F002FA002801D00120D3
:104BC00038BD68460078C107C90F617002210840EE
:104BD0002070684600788106C90FC006A170C00F1A
:104BE000E070002038BD10B50B4601220F2100F007
:104BF000E6F9002800D0012010BD38B50C466B4600
:104C00000122142100F0DBF9002801D0012038BD79
:104C1000694608784009400108702070002038BDBE
:104C200038B50C466B460122262100F0C8F9002851
:104C300001D0012038BD684600780022C1092171E9
:104C40004106C90FE1708006800E01212070002806
:104C500003D06270202804D000E06170A2700020B0
:104C600038BDA170FBE710B50C460B46012214219C
:104C700000F0A5F9002801D0012010BD2078C00661
:104C8000C00E2070002010BD38B50C46694600F0FB
:104C90002DF8012812D068460078302816D006DC9E
:104CA00000280ED010280AD0202804D10CE040287B
:104CB0000ED050280ED008482060012038BD7F203B
:104CC000C0052060002038BD0448FAE70448F8E732
:104CD0000448F6E70448F4E7000080BF00002041E4
:104CE0000000C841000048420000964238B50C461A
:104CF0006B460122102100F062F9002801D001204A
:104D000038BD68460078702108402070002038BD0A
:104D100038B50C4600210091694600F00DF80128D5
:104D200007D00098FBF7E8FC0249FBF7FFFA206088
:104D3000002038BD0000C84238B50C46694600F076
:104D40000EF8002801D0012038BD009864214843A6
:104D5000C117090D081800132060002038BD38B5B0
:104D60000D4600246B460322282100F028F9002874
:104D700001D0012038BD002069460A5CC3009A407A
:104D8000401C1443C0B20328F7D3200202D5FF20F1
:104D90000006044300202C6038BD38B50C466B4635
:104DA00002222B2100F00BF9002801D0012038BD90
:104DB0006846407801026846007808182080002084
:104DC00038BD000038B50C4600216A46118069469E
:104DD00000F010F8012809D069460020085EFBF7B2
:104DE0008BFC0349FBF7A2FA2060002038BD0000CD
:104DF0000000204138B50C466946FFF7CEFF002879
:104E000001D0012038BD69460020085E0A214843D0
:104E10006421FBF783F92080002038BD10B5FFF72F
:104E2000E2FE012800D0002010BD000070B50C4645
:104E30000546FFF7D5FD012826D014486060012102
:104E4000284600F0CFFA01281ED00021284600F0A5
:104E5000AEFA012818D00021284600F0EAF901280E
:104E600012D00021284600F0FFF901280CD00221C1
:104E7000284600F006F9012806D00021284600F057
:104E8000E5F8012800D0002070BD00000000C841F6
:104E900010B5FFF7A5FD10BD70B505468068006828
:104EA00004686078002804D1284600F038F801280A
:104EB00002D000202070E87070BD38B50C466946FD
:104EC000FFF774FE012803D0684640782070002068
:104ED00038BD10B5FFF7D8FE10BD10B5FFF718FFAD
:104EE00010BD10B5FFF79AFF10BD70B5054680687C
:104EF000006804686078002805D121462846FFF73D
:104F000095FF012803D001202070E870002070BDBB
:104F100010B500F06CF8012800D0002010BD70B56D
:104F20000446806800680568207900280BD0E8787E
:104F3000002805D10021204600F039FA012802D0CE
:104F40000020A870207170BD70B5054680680068AB
:104F500004682879012809D022462846616800F0B3
:104F6000B9F9012803D00120A0702871002070BD7C
:104F700010B5826803791268012B126805D000F021
:104F8000D5F9012800D0002010BD00F0EFF9F8E7B6
:104F900010B5826803791268012B126805D000F001
:104FA0007FF9012800D0002010BD00F093F9F8E748
:104FB00010B500F0E0FA012800D0002010BDFFB5C8
:104FC00081B01E4615460F4600240CE03819C1B2C8
:104FD00032190123019805F0E3F8002802D00120DE
:104FE00005B0F0BD641CAC42F0DB0020F8E710B562
:104FF00013460122FFF7E3FF012800D0002010BD77
:1050000000B50F4887B0C26A02210A43C262C06A73
:10501000039108400590480200900A480190002042
:10502000029069460848FCF7C9FC00221146072097
:10503000FCF7C4FF0720FCF79FFF002007B000BD6E
:1050400000100240000011100004005038B50C465A
:1050500005466B4601221121FFF7B1FF00280ED152
:1050600069460A78EF2002402001104308706B4621
:1050700001221121284600F066FA002800D0012004
:1050800038BD38B50C4605466B4601221021FFF7A6
:1050900096FF002801D0012038BD68460178FD2028
:1050A00001402143684601706B46012210212846C9
:1050B00000F049FA0028EFD0002038BD38B50C4682
:1050C00005466B4601221221FFF779FF00280ED119
:1050D00069460A78EF2002402001104308706B46B1
:1050E00001221221284600F02EFA002800D00120CB
:1050F00038BD38B50C4605466B4601221221FFF734
:105100005EFF00280ED169460A78DF200240600168
:10511000104308706B4601221221284600F013FA52
:10512000002800D0012038BD38B50C4605466B4636
:1051300001221221FFF743FF00280ED169460A78A9
:10514000F7200240E000104308706B460122122154
:10515000284600F0F8F9002800D0012038BD38B505
:105160000C4605466B4601221421FFF728FF002854
:105170000DD1694608786B46C006C00E2043087002
:1051800001221421284600F0DEF9002800D0012079
:1051900038BD38B50C4605466B4601221121FFF794
:1051A0000EFF00280ED169460A78BF200240A001F8
:1051B000104308706B4601221121284600F0C3F904
:1051C000002800D0012038BD38B50C4605466B4696
:1051D00001221421FFF7F3FE00280DD1694608785B
:1051E0006B464009400120430870012214212846E3
:1051F00000F0A9F9002800D0012038BD38B50C46D0
:1052000005466B4601221121FFF7D9FE00280ED179
:1052100069460A78DF2002406001104308706B463F
:1052200001221121284600F08EF9002800D001202B
:1052300038BD38B50C4605466B4601221021FFF7F4
:10524000BEFE00280ED169460A78F7200240E00031
:10525000104308706B4601221021284600F073F9B4
:10526000002800D0012038BD38B50C4605466B46F5
:1052700001221021FFF7A3FE00280ED16846017815
:10528000FB2001402143684601706B46012210213A
:10529000284600F058F9002800D0012038BD000051
:1052A0007F20C005814209DD0648814206DD0648AF
:1052B000814203DD0548814200DD05485060002041
:1052C00070470000000020410000C8410000484233
:1052D0000000964270B505467F20C0051446814205
:1052E00001DC10210FE00E48814201DC20210AE0A0
:1052F0000C48814201DC302105E00B48814201DC91
:10530000402100E05021284600F051F8012806D045
:10531000211D2846FFF7B8FC012800D0002070BDF1
:10532000000020410000C8410000484200B50B00C9
:1053300005F0CFFB0504070B0D0F11007F20C00502
:1053400000E006485060002000BD0548FAE7054827
:10535000F8E70548F6E7012000BD00000000204105
:105360000000C841000048420000964270B5144653
:1053700005460B0005F0ADFB050406080A0C1900F4
:10538000102106E0202104E0302102E0402100E06D
:10539000502100F00CF8012806D0211D2846FFF707
:1053A00073FC012800D0002070BD012070BD38B50D
:1053B0000C4605466B4601221021FFF700FE00282F
:1053C0000ED1684601788F20014021436846017064
:1053D0006B4601221021284600F0B5F8002800D0C5
:1053E000012038BD38B50C4605466B4601221A210E
:1053F000FFF7E5FD00280DD1694608786B464008A7
:1054000040002043087001221A21284600F09BF832
:10541000002800D0012038BD10B5FFF7E1FA10BD1B
:1054200070B505468068006804682078002804D1BB
:10543000284600F038F8012802D000206070E8709B
:1054400070BD38B50C466946FFF7B0FB012803D0A4
:10545000684600782070002038BD10B5FFF714FCB6
:1054600010BD10B5FFF7AEFC10BD10B5FFF7D6FCB0
:1054700010BD70B505468068006804682078002873
:1054800005D121462846FFF7D1FC012803D0012091
:105490006070E870002070BD10B5FFF7A8FD01280E
:1054A00000D0002010BD70B5044680680068056813
:1054B000207900280BD0A878002805D100212046AB
:1054C000FFF775FF012802D00020E870207170BD41
:1054D00070B505468068006804682879012809D0FD
:1054E000224628466168FFF7F5FE012803D0012017
:1054F000E0702871002070BD10B5826803791268D1
:10550000012B126805D0FFF711FF012800D0002001
:1055100010BDFFF72BFFF8E710B58268037912681A
:10552000012B126805D0FFF7BBFE012800D0002038
:1055300010BDFFF7CFFEF8E710B500F01CF801280A
:1055400000D0002010BDFFB581B01E4615460F46A5
:1055500000240CE03819C1B232190123019804F07B
:1055600037FE002802D0012005B0F0BD641CAC421B
:10557000F0DB0020F8E707B502AB0122FFF7E3FFFD
:10558000012800D000200EBDF8B5174605460A4692
:105590001948069C089E0799447183711C0AC471BE
:1055A0001C0C04721B0E437281720B0AC3720B0C2B
:1055B0000373090E4173D4B2C4731048FBF7CEFBDA
:1055C00039460E48FBF7DAFB10220B490B48FBF774
:1055D000DDFB224629460948FBF7D8FB0749C81FCF
:1055E000FD38FBF71DFB064C601CFAF7FFFD217828
:1055F000000208433060F8BDB00200206C0E0020AD
:10560000680D0020F8B50E46050017467ED02868C4
:105610000028FBD068680028F8D0A8680028F5D0DA
:10562000104602F0B5FF002871D0764C00212666A6
:10563000E565224627741A3211706174A1632176E0
:1056400001266676E1746165A1650B216A461170D9
:105650003846694602F08BFF002800D001202075F3
:105660000821684601706946207C02F080FF664D83
:1056700005212870684601706946207C02F077FF9A
:1056800068700C21684601706946207C02F06FFF4B
:10569000E8600D21684601706946207C02F067FFD2
:1056A00028610E21684601706946207C02F05FFF88
:1056B00068610F21684601706946207C02F057FF3F
:1056C000A8611021684601706946207C02F04FFFF6
:1056D000E8611321684601706946207C02F047FFAB
:1056E0002F46203778701421684601706946207C67
:1056F00002F03DFF68621521684601706946207C12
:1057000002F035FF38721A21684601E076E077E052
:1057100001706946207C02F02AFF38731B2168461D
:1057200001706946207C02F022FF78731C216846D4
:1057300001706946207C02F01AFF28631D2168462B
:1057400001706946207C02F012FF68630021207C12
:1057500002F017FF3E700A2206216A60284629726D
:10576000383842600172E968C1602969016169697C
:105770004161A9698161E969C1612030067002F067
:1057800079FF28462149383004F008FE7D2128465B
:10579000C900383004F06AFE28461D49683004F01C
:1057A000FDFD28461B497C3004F0F8FD28461A49C7
:1057B000903004F0F3FD28461849CC3004F0EEFD9B
:1057C00004F0DAFD6063284615494C300160154944
:1057D000816015490161154941601549154DC16048
:1057E000A9688847E869804706F0C0FAA674296E60
:1057F00030468847686B80470020F8BD0320F8BD1D
:105800000A20F8BD44020020400C002095650008E5
:105810007D6F0008896E0008E96E00085D6500086C
:10582000616D0008C5670008996C00084D6E00089E
:10583000F96C000814C10008F8B504461D46174667
:105840000E460D48FBF78AFA39460B48FBF796FAE5
:10585000F2B221460848FBF799FA0749C81FFD38FC
:10586000FBF7DEF9054C601CFAF7C0FC217800025A
:1058700008432860F8BD00006C0E0020680D002071
:10588000FFB585B00F46044607ADF02200211D4844
:105890000E9E06F0B1F81B4A1021204605F0BCFD13
:1058A00010220021684606F0A7F801216846017021
:1058B000062239466C46401C06F086F8022229462C
:1058C000E01D06F081F80F4A6846089905F079FD59
:1058D00010220021684606F08FF802216846017008
:1058E00006223946601C06F06FF802222946E01DA8
:1058F00006F06AF8034A3146684605F062FD09B0D1
:10590000F0BD0000780D0020F8B517460E4605469C
:105910001C46F02200210B4806F06EF8094A1021BF
:10592000384605F079FD074A2146284605F049FD2D
:10593000102E06D321462846024A1031103005F0B9
:1059400040FDF8BD780D0020F0B5044687B0022078
:105950000490002006460190002C78D04248816BCC
:10596000CA0701D1C80602D5012007B0F0BD00204A
:1059700069460872014614223C4806F03DF83B484F
:1059800001214170384841732278002A04D0012A4D
:105990000AD0032A26D118E001736B461A7A012631
:1059A000D206D20E403207E0E27B02736B461A7ACF
:1059B0000126D206D20E80321A7222790192A26892
:1059C00000920E25A78965570CE001736B461A7A81
:1059D000E0231A436B461A726268012600920A2578
:1059E0002789655701216A46117521490691097B6E
:1059F00091751D4805A9007C02F0B9FDA84200D3AD
:105A0000054668B2002E1FD0174D2979002910D104
:105A10006946087306980422007B887303A9287CD2
:105A200002F01DFE002812D011496846007B203983
:105A300048703B4602A8009A019904F0F7FA0490D6
:105A4000002806D00020687104988EE7FFE7032045
:105A50008BE7064821780170034801221A3001784B
:105A600011430170F0E7000044020020380D0020CF
:105A7000280C0020F8B500250446002818D0394924
:105A8000277837480E463836027C3B0005F021F86F
:105A90001E121417191B1E2023252729303B3942BB
:105AA00046484A4C4E50525654585A5C5E606264A6
:105AB0000320F8BD407C00E0C07820714DE0007903
:105AC000FBE7C06C00E0006D606046E02648FBE745
:105AD00025481030F8E7807CEFE7C07CEDE719201F
